{
  "contractName": "AisthisiToken",
  "abi": [
    {
      "inputs": [],
      "stateMutability": "nonpayable",
      "type": "constructor"
    },
    {
      "anonymous": false,
      "inputs": [
        {
          "indexed": true,
          "internalType": "address",
          "name": "owner",
          "type": "address"
        },
        {
          "indexed": true,
          "internalType": "address",
          "name": "approved",
          "type": "address"
        },
        {
          "indexed": true,
          "internalType": "uint256",
          "name": "tokenId",
          "type": "uint256"
        }
      ],
      "name": "Approval",
      "type": "event"
    },
    {
      "anonymous": false,
      "inputs": [
        {
          "indexed": true,
          "internalType": "address",
          "name": "owner",
          "type": "address"
        },
        {
          "indexed": true,
          "internalType": "address",
          "name": "operator",
          "type": "address"
        },
        {
          "indexed": false,
          "internalType": "bool",
          "name": "approved",
          "type": "bool"
        }
      ],
      "name": "ApprovalForAll",
      "type": "event"
    },
    {
      "anonymous": false,
      "inputs": [
        {
          "indexed": false,
          "internalType": "address",
          "name": "account",
          "type": "address"
        }
      ],
      "name": "Paused",
      "type": "event"
    },
    {
      "anonymous": false,
      "inputs": [
        {
          "indexed": true,
          "internalType": "bytes32",
          "name": "role",
          "type": "bytes32"
        },
        {
          "indexed": true,
          "internalType": "bytes32",
          "name": "previousAdminRole",
          "type": "bytes32"
        },
        {
          "indexed": true,
          "internalType": "bytes32",
          "name": "newAdminRole",
          "type": "bytes32"
        }
      ],
      "name": "RoleAdminChanged",
      "type": "event"
    },
    {
      "anonymous": false,
      "inputs": [
        {
          "indexed": true,
          "internalType": "bytes32",
          "name": "role",
          "type": "bytes32"
        },
        {
          "indexed": true,
          "internalType": "address",
          "name": "account",
          "type": "address"
        },
        {
          "indexed": true,
          "internalType": "address",
          "name": "sender",
          "type": "address"
        }
      ],
      "name": "RoleGranted",
      "type": "event"
    },
    {
      "anonymous": false,
      "inputs": [
        {
          "indexed": true,
          "internalType": "bytes32",
          "name": "role",
          "type": "bytes32"
        },
        {
          "indexed": true,
          "internalType": "address",
          "name": "account",
          "type": "address"
        },
        {
          "indexed": true,
          "internalType": "address",
          "name": "sender",
          "type": "address"
        }
      ],
      "name": "RoleRevoked",
      "type": "event"
    },
    {
      "anonymous": false,
      "inputs": [
        {
          "indexed": false,
          "internalType": "uint256",
          "name": "tokenId",
          "type": "uint256"
        },
        {
          "indexed": false,
          "internalType": "address",
          "name": "unlockerAddress",
          "type": "address"
        }
      ],
      "name": "TokenUnlocked",
      "type": "event"
    },
    {
      "anonymous": false,
      "inputs": [
        {
          "indexed": true,
          "internalType": "address",
          "name": "from",
          "type": "address"
        },
        {
          "indexed": true,
          "internalType": "address",
          "name": "to",
          "type": "address"
        },
        {
          "indexed": true,
          "internalType": "uint256",
          "name": "tokenId",
          "type": "uint256"
        }
      ],
      "name": "Transfer",
      "type": "event"
    },
    {
      "anonymous": false,
      "inputs": [
        {
          "indexed": false,
          "internalType": "address",
          "name": "account",
          "type": "address"
        }
      ],
      "name": "Unpaused",
      "type": "event"
    },
    {
      "inputs": [],
      "name": "DEFAULT_ADMIN_ROLE",
      "outputs": [
        {
          "internalType": "bytes32",
          "name": "",
          "type": "bytes32"
        }
      ],
      "stateMutability": "view",
      "type": "function",
      "constant": true
    },
    {
      "inputs": [],
      "name": "MINTER_ROLE",
      "outputs": [
        {
          "internalType": "bytes32",
          "name": "",
          "type": "bytes32"
        }
      ],
      "stateMutability": "view",
      "type": "function",
      "constant": true
    },
    {
      "inputs": [],
      "name": "PAUSER_ROLE",
      "outputs": [
        {
          "internalType": "bytes32",
          "name": "",
          "type": "bytes32"
        }
      ],
      "stateMutability": "view",
      "type": "function",
      "constant": true
    },
    {
      "inputs": [
        {
          "internalType": "address",
          "name": "to",
          "type": "address"
        },
        {
          "internalType": "uint256",
          "name": "tokenId",
          "type": "uint256"
        }
      ],
      "name": "approve",
      "outputs": [],
      "stateMutability": "nonpayable",
      "type": "function"
    },
    {
      "inputs": [
        {
          "internalType": "address",
          "name": "owner",
          "type": "address"
        }
      ],
      "name": "balanceOf",
      "outputs": [
        {
          "internalType": "uint256",
          "name": "",
          "type": "uint256"
        }
      ],
      "stateMutability": "view",
      "type": "function",
      "constant": true
    },
    {
      "inputs": [
        {
          "internalType": "uint256",
          "name": "tokenId",
          "type": "uint256"
        }
      ],
      "name": "burn",
      "outputs": [],
      "stateMutability": "nonpayable",
      "type": "function"
    },
    {
      "inputs": [
        {
          "internalType": "uint256",
          "name": "tokenId",
          "type": "uint256"
        }
      ],
      "name": "getApproved",
      "outputs": [
        {
          "internalType": "address",
          "name": "",
          "type": "address"
        }
      ],
      "stateMutability": "view",
      "type": "function",
      "constant": true
    },
    {
      "inputs": [
        {
          "internalType": "bytes32",
          "name": "role",
          "type": "bytes32"
        }
      ],
      "name": "getRoleAdmin",
      "outputs": [
        {
          "internalType": "bytes32",
          "name": "",
          "type": "bytes32"
        }
      ],
      "stateMutability": "view",
      "type": "function",
      "constant": true
    },
    {
      "inputs": [
        {
          "internalType": "bytes32",
          "name": "role",
          "type": "bytes32"
        },
        {
          "internalType": "uint256",
          "name": "index",
          "type": "uint256"
        }
      ],
      "name": "getRoleMember",
      "outputs": [
        {
          "internalType": "address",
          "name": "",
          "type": "address"
        }
      ],
      "stateMutability": "view",
      "type": "function",
      "constant": true
    },
    {
      "inputs": [
        {
          "internalType": "bytes32",
          "name": "role",
          "type": "bytes32"
        }
      ],
      "name": "getRoleMemberCount",
      "outputs": [
        {
          "internalType": "uint256",
          "name": "",
          "type": "uint256"
        }
      ],
      "stateMutability": "view",
      "type": "function",
      "constant": true
    },
    {
      "inputs": [
        {
          "internalType": "bytes32",
          "name": "role",
          "type": "bytes32"
        },
        {
          "internalType": "address",
          "name": "account",
          "type": "address"
        }
      ],
      "name": "grantRole",
      "outputs": [],
      "stateMutability": "nonpayable",
      "type": "function"
    },
    {
      "inputs": [
        {
          "internalType": "bytes32",
          "name": "role",
          "type": "bytes32"
        },
        {
          "internalType": "address",
          "name": "account",
          "type": "address"
        }
      ],
      "name": "hasRole",
      "outputs": [
        {
          "internalType": "bool",
          "name": "",
          "type": "bool"
        }
      ],
      "stateMutability": "view",
      "type": "function",
      "constant": true
    },
    {
      "inputs": [
        {
          "internalType": "address",
          "name": "owner",
          "type": "address"
        },
        {
          "internalType": "address",
          "name": "operator",
          "type": "address"
        }
      ],
      "name": "isApprovedForAll",
      "outputs": [
        {
          "internalType": "bool",
          "name": "",
          "type": "bool"
        }
      ],
      "stateMutability": "view",
      "type": "function",
      "constant": true
    },
    {
      "inputs": [],
      "name": "name",
      "outputs": [
        {
          "internalType": "string",
          "name": "",
          "type": "string"
        }
      ],
      "stateMutability": "view",
      "type": "function",
      "constant": true
    },
    {
      "inputs": [
        {
          "internalType": "uint256",
          "name": "tokenId",
          "type": "uint256"
        }
      ],
      "name": "ownerOf",
      "outputs": [
        {
          "internalType": "address",
          "name": "",
          "type": "address"
        }
      ],
      "stateMutability": "view",
      "type": "function",
      "constant": true
    },
    {
      "inputs": [],
      "name": "pause",
      "outputs": [],
      "stateMutability": "nonpayable",
      "type": "function"
    },
    {
      "inputs": [],
      "name": "paused",
      "outputs": [
        {
          "internalType": "bool",
          "name": "",
          "type": "bool"
        }
      ],
      "stateMutability": "view",
      "type": "function",
      "constant": true
    },
    {
      "inputs": [
        {
          "internalType": "bytes32",
          "name": "role",
          "type": "bytes32"
        },
        {
          "internalType": "address",
          "name": "account",
          "type": "address"
        }
      ],
      "name": "renounceRole",
      "outputs": [],
      "stateMutability": "nonpayable",
      "type": "function"
    },
    {
      "inputs": [
        {
          "internalType": "bytes32",
          "name": "role",
          "type": "bytes32"
        },
        {
          "internalType": "address",
          "name": "account",
          "type": "address"
        }
      ],
      "name": "revokeRole",
      "outputs": [],
      "stateMutability": "nonpayable",
      "type": "function"
    },
    {
      "inputs": [
        {
          "internalType": "address",
          "name": "from",
          "type": "address"
        },
        {
          "internalType": "address",
          "name": "to",
          "type": "address"
        },
        {
          "internalType": "uint256",
          "name": "tokenId",
          "type": "uint256"
        }
      ],
      "name": "safeTransferFrom",
      "outputs": [],
      "stateMutability": "nonpayable",
      "type": "function"
    },
    {
      "inputs": [
        {
          "internalType": "address",
          "name": "from",
          "type": "address"
        },
        {
          "internalType": "address",
          "name": "to",
          "type": "address"
        },
        {
          "internalType": "uint256",
          "name": "tokenId",
          "type": "uint256"
        },
        {
          "internalType": "bytes",
          "name": "_data",
          "type": "bytes"
        }
      ],
      "name": "safeTransferFrom",
      "outputs": [],
      "stateMutability": "nonpayable",
      "type": "function"
    },
    {
      "inputs": [
        {
          "internalType": "address",
          "name": "operator",
          "type": "address"
        },
        {
          "internalType": "bool",
          "name": "approved",
          "type": "bool"
        }
      ],
      "name": "setApprovalForAll",
      "outputs": [],
      "stateMutability": "nonpayable",
      "type": "function"
    },
    {
      "inputs": [
        {
          "internalType": "bytes4",
          "name": "interfaceId",
          "type": "bytes4"
        }
      ],
      "name": "supportsInterface",
      "outputs": [
        {
          "internalType": "bool",
          "name": "",
          "type": "bool"
        }
      ],
      "stateMutability": "view",
      "type": "function",
      "constant": true
    },
    {
      "inputs": [],
      "name": "symbol",
      "outputs": [
        {
          "internalType": "string",
          "name": "",
          "type": "string"
        }
      ],
      "stateMutability": "view",
      "type": "function",
      "constant": true
    },
    {
      "inputs": [
        {
          "internalType": "uint256",
          "name": "index",
          "type": "uint256"
        }
      ],
      "name": "tokenByIndex",
      "outputs": [
        {
          "internalType": "uint256",
          "name": "",
          "type": "uint256"
        }
      ],
      "stateMutability": "view",
      "type": "function",
      "constant": true
    },
    {
      "inputs": [
        {
          "internalType": "uint256",
          "name": "",
          "type": "uint256"
        }
      ],
      "name": "tokenLockedFromTimestamp",
      "outputs": [
        {
          "internalType": "uint256",
          "name": "",
          "type": "uint256"
        }
      ],
      "stateMutability": "view",
      "type": "function",
      "constant": true
    },
    {
      "inputs": [
        {
          "internalType": "address",
          "name": "owner",
          "type": "address"
        },
        {
          "internalType": "uint256",
          "name": "index",
          "type": "uint256"
        }
      ],
      "name": "tokenOfOwnerByIndex",
      "outputs": [
        {
          "internalType": "uint256",
          "name": "",
          "type": "uint256"
        }
      ],
      "stateMutability": "view",
      "type": "function",
      "constant": true
    },
    {
      "inputs": [
        {
          "internalType": "uint256",
          "name": "",
          "type": "uint256"
        }
      ],
      "name": "tokenUnlockCodeHashes",
      "outputs": [
        {
          "internalType": "bytes32",
          "name": "",
          "type": "bytes32"
        }
      ],
      "stateMutability": "view",
      "type": "function",
      "constant": true
    },
    {
      "inputs": [
        {
          "internalType": "uint256",
          "name": "",
          "type": "uint256"
        }
      ],
      "name": "tokenUnlocked",
      "outputs": [
        {
          "internalType": "bool",
          "name": "",
          "type": "bool"
        }
      ],
      "stateMutability": "view",
      "type": "function",
      "constant": true
    },
    {
      "inputs": [],
      "name": "totalSupply",
      "outputs": [
        {
          "internalType": "uint256",
          "name": "",
          "type": "uint256"
        }
      ],
      "stateMutability": "view",
      "type": "function",
      "constant": true
    },
    {
      "inputs": [
        {
          "internalType": "address",
          "name": "from",
          "type": "address"
        },
        {
          "internalType": "address",
          "name": "to",
          "type": "address"
        },
        {
          "internalType": "uint256",
          "name": "tokenId",
          "type": "uint256"
        }
      ],
      "name": "transferFrom",
      "outputs": [],
      "stateMutability": "nonpayable",
      "type": "function"
    },
    {
      "inputs": [],
      "name": "unpause",
      "outputs": [],
      "stateMutability": "nonpayable",
      "type": "function"
    },
    {
      "inputs": [
        {
          "internalType": "bytes32",
          "name": "unlockHash",
          "type": "bytes32"
        },
        {
          "internalType": "uint256",
          "name": "tokenId",
          "type": "uint256"
        }
      ],
      "name": "unlockToken",
      "outputs": [],
      "stateMutability": "nonpayable",
      "type": "function"
    },
    {
      "inputs": [
        {
          "internalType": "address",
          "name": "to",
          "type": "address"
        },
        {
          "internalType": "uint256",
          "name": "lockedFromTimestamp",
          "type": "uint256"
        },
        {
          "internalType": "bytes32",
          "name": "unlockHash",
          "type": "bytes32"
        }
      ],
      "name": "mint",
      "outputs": [],
      "stateMutability": "nonpayable",
      "type": "function"
    },
    {
      "inputs": [
        {
          "internalType": "address",
          "name": "to",
          "type": "address"
        }
      ],
      "name": "mint",
      "outputs": [],
      "stateMutability": "nonpayable",
      "type": "function"
    },
    {
      "inputs": [
        {
          "internalType": "uint256",
          "name": "tokenId",
          "type": "uint256"
        }
      ],
      "name": "tokenURI",
      "outputs": [
        {
          "internalType": "string",
          "name": "",
          "type": "string"
        }
      ],
      "stateMutability": "view",
      "type": "function",
      "constant": true
    }
  ],
  "bytecode": "0x60806040523480156200001157600080fd5b506040518060400160405280600d81526020017f4169737468697369546f6b656e000000000000000000000000000000000000008152506040518060400160405280600381526020017f41495300000000000000000000000000000000000000000000000000000000008152506040518060400160405280601e81526020017f68747470733a2f2f61697374686973692e6172742f6d657461646174612f000081525082828160029080519060200190620000ce92919062000463565b508060039080519060200190620000e792919062000463565b5050506000600c60006101000a81548160ff02191690831515021790555080600e90805190602001906200011d92919062000463565b50620001426000801b62000136620001cd60201b60201c565b620001d560201b60201c565b620001837f9f2df0fed2c77648de5860a4cc508cd0818c85b8b8a1ab4ceeef8d981c8956a662000177620001cd60201b60201c565b620001d560201b60201c565b620001c47f65d7a28e3265b37a6474929f336521b332c1681b933f6cb9f3376673440d862a620001b8620001cd60201b60201c565b620001d560201b60201c565b50505062000577565b600033905090565b620001e78282620001eb60201b60201c565b5050565b6200020282826200023360201b6200143c1760201c565b6200022e81600160008581526020019081526020016000206200032460201b6200151c1790919060201c565b505050565b6200024582826200035c60201b60201c565b6200032057600160008084815260200190815260200160002060000160008373ffffffffffffffffffffffffffffffffffffffff1673ffffffffffffffffffffffffffffffffffffffff16815260200190815260200160002060006101000a81548160ff021916908315150217905550620002c5620001cd60201b60201c565b73ffffffffffffffffffffffffffffffffffffffff168173ffffffffffffffffffffffffffffffffffffffff16837f2f8788117e7eff1d82e926ec794901d17c78024a50270940304540a733656f0d60405160405180910390a45b5050565b600062000354836000018373ffffffffffffffffffffffffffffffffffffffff1660001b620003c660201b60201c565b905092915050565b600080600084815260200190815260200160002060000160008373ffffffffffffffffffffffffffffffffffffffff1673ffffffffffffffffffffffffffffffffffffffff16815260200190815260200160002060009054906101000a900460ff16905092915050565b6000620003da83836200044060201b60201c565b620004355782600001829080600181540180825580915050600190039060005260206000200160009091909190915055826000018054905083600101600084815260200190815260200160002081905550600190506200043a565b600090505b92915050565b600080836001016000848152602001908152602001600020541415905092915050565b828054620004719062000542565b90600052602060002090601f016020900481019282620004955760008555620004e1565b82601f10620004b057805160ff1916838001178555620004e1565b82800160010185558215620004e1579182015b82811115620004e0578251825591602001919060010190620004c3565b5b509050620004f09190620004f4565b5090565b5b808211156200050f576000816000905550600101620004f5565b5090565b7f4e487b7100000000000000000000000000000000000000000000000000000000600052602260045260246000fd5b600060028204905060018216806200055b57607f821691505b60208210810362000571576200057062000513565b5b50919050565b614e2280620005876000396000f3fe608060405234801561001057600080fd5b506004361061021c5760003560e01c80636352211e11610125578063a3c3e1bd116100ad578063ca15c8731161007c578063ca15c8731461066f578063d53913931461069f578063d547741f146106bd578063e63ab1e9146106d9578063e985e9c5146106f75761021c565b8063a3c3e1bd146105d7578063b88d4fde146105f3578063c4d271be1461060f578063c87b56dd1461063f5761021c565b80639010d07c116100f45780639010d07c1461051f57806391d148541461054f57806395d89b411461057f578063a217fddf1461059d578063a22cb465146105bb5761021c565b80636352211e146104995780636a627842146104c957806370a08231146104e55780638456cb59146105155761021c565b80632f2ff15d116101a857806342842e0e1161017757806342842e0e146103e357806342966c68146103ff5780634f6ccce71461041b57806351f6b2e81461044b5780635c975abb1461047b5761021c565b80632f2ff15d146103715780632f745c591461038d57806336568abe146103bd5780633f4ba83a146103d95761021c565b8063095ea7b3116101ef578063095ea7b3146102cf57806318160ddd146102eb5780631e458bee1461030957806323b872dd14610325578063248a9ca3146103415761021c565b806301ffc9a71461022157806303017e421461025157806306fdde0314610281578063081812fc1461029f575b600080fd5b61023b600480360381019061023691906132c8565b610727565b6040516102489190613310565b60405180910390f35b61026b60048036038101906102669190613361565b610739565b60405161027891906133a7565b60405180910390f35b610289610751565b604051610296919061345b565b60405180910390f35b6102b960048036038101906102b49190613361565b6107e3565b6040516102c691906134be565b60405180910390f35b6102e960048036038101906102e49190613505565b610868565b005b6102f361097f565b6040516103009190613554565b60405180910390f35b610323600480360381019061031e919061359b565b61098c565b005b61033f600480360381019061033a91906135ee565b6109e6565b005b61035b60048036038101906103569190613641565b610a46565b60405161036891906133a7565b60405180910390f35b61038b6004803603810190610386919061366e565b610a65565b005b6103a760048036038101906103a29190613505565b610a8e565b6040516103b49190613554565b60405180910390f35b6103d760048036038101906103d2919061366e565b610b33565b005b6103e1610bb6565b005b6103fd60048036038101906103f891906135ee565b610c30565b005b61041960048036038101906104149190613361565b610c50565b005b61043560048036038101906104309190613361565b610cac565b6040516104429190613554565b60405180910390f35b61046560048036038101906104609190613361565b610d1d565b6040516104729190613554565b60405180910390f35b610483610d35565b6040516104909190613310565b60405180910390f35b6104b360048036038101906104ae9190613361565b610d4c565b6040516104c091906134be565b60405180910390f35b6104e360048036038101906104de91906136ae565b610dfd565b005b6104ff60048036038101906104fa91906136ae565b610e8d565b60405161050c9190613554565b60405180910390f35b61051d610f44565b005b610539600480360381019061053491906136db565b610fbe565b60405161054691906134be565b60405180910390f35b6105696004803603810190610564919061366e565b610fed565b6040516105769190613310565b60405180910390f35b610587611057565b604051610594919061345b565b60405180910390f35b6105a56110e9565b6040516105b291906133a7565b60405180910390f35b6105d560048036038101906105d09190613747565b6110f0565b005b6105f160048036038101906105ec91906136db565b611106565b005b61060d600480360381019061060891906138bc565b611260565b005b61062960048036038101906106249190613361565b6112c2565b6040516106369190613310565b60405180910390f35b61065960048036038101906106549190613361565b6112e2565b604051610666919061345b565b60405180910390f35b61068960048036038101906106849190613641565b611313565b6040516106969190613554565b60405180910390f35b6106a7611337565b6040516106b491906133a7565b60405180910390f35b6106d760048036038101906106d2919061366e565b61135b565b005b6106e1611384565b6040516106ee91906133a7565b60405180910390f35b610711600480360381019061070c919061393f565b6113a8565b60405161071e9190613310565b60405180910390f35b60006107328261154c565b9050919050565b60116020528060005260406000206000915090505481565b606060028054610760906139ae565b80601f016020809104026020016040519081016040528092919081815260200182805461078c906139ae565b80156107d95780601f106107ae576101008083540402835291602001916107d9565b820191906000526020600020905b8154815290600101906020018083116107bc57829003601f168201915b5050505050905090565b60006107ee826115c6565b61082d576040517f08c379a000000000000000000000000000000000000000000000000000000000815260040161082490613a51565b60405180910390fd5b6006600083815260200190815260200160002060009054906101000a900473ffffffffffffffffffffffffffffffffffffffff169050919050565b600061087382610d4c565b90508073ffffffffffffffffffffffffffffffffffffffff168373ffffffffffffffffffffffffffffffffffffffff16036108e3576040517f08c379a00000000000000000000000000000000000000000000000000000000081526004016108da90613ae3565b60405180910390fd5b8073ffffffffffffffffffffffffffffffffffffffff16610902611632565b73ffffffffffffffffffffffffffffffffffffffff16148061093157506109308161092b611632565b6113a8565b5b610970576040517f08c379a000000000000000000000000000000000000000000000000000000000815260040161096790613b75565b60405180910390fd5b61097a838361163a565b505050565b6000600a80549050905090565b816010600061099b600f6116f3565b81526020019081526020016000208190555080601160006109bc600f6116f3565b8152602001908152602001600020819055506109d8600f611701565b6109e183610dfd565b505050565b6109f76109f1611632565b82611717565b610a36576040517f08c379a0000000000000000000000000000000000000000000000000000000008152600401610a2d90613c07565b60405180910390fd5b610a418383836117f5565b505050565b6000806000838152602001908152602001600020600101549050919050565b610a6e82610a46565b610a7f81610a7a611632565b611a5b565b610a898383611af8565b505050565b6000610a9983610e8d565b8210610ada576040517f08c379a0000000000000000000000000000000000000000000000000000000008152600401610ad190613c99565b60405180910390fd5b600860008473ffffffffffffffffffffffffffffffffffffffff1673ffffffffffffffffffffffffffffffffffffffff168152602001908152602001600020600083815260200190815260200160002054905092915050565b610b3b611632565b73ffffffffffffffffffffffffffffffffffffffff168173ffffffffffffffffffffffffffffffffffffffff1614610ba8576040517f08c379a0000000000000000000000000000000000000000000000000000000008152600401610b9f90613d2b565b60405180910390fd5b610bb28282611b2c565b5050565b610be77f65d7a28e3265b37a6474929f336521b332c1681b933f6cb9f3376673440d862a610be2611632565b610fed565b610c26576040517f08c379a0000000000000000000000000000000000000000000000000000000008152600401610c1d90613dbd565b60405180910390fd5b610c2e611b60565b565b610c4b83838360405180602001604052806000815250611260565b505050565b610c61610c5b611632565b82611717565b610ca0576040517f08c379a0000000000000000000000000000000000000000000000000000000008152600401610c9790613e4f565b60405180910390fd5b610ca981611c02565b50565b6000610cb661097f565b8210610cf7576040517f08c379a0000000000000000000000000000000000000000000000000000000008152600401610cee90613ee1565b60405180910390fd5b600a8281548110610d0b57610d0a613f01565b5b90600052602060002001549050919050565b60106020528060005260406000206000915090505481565b6000600c60009054906101000a900460ff16905090565b6000806004600084815260200190815260200160002060009054906101000a900473ffffffffffffffffffffffffffffffffffffffff169050600073ffffffffffffffffffffffffffffffffffffffff168173ffffffffffffffffffffffffffffffffffffffff1603610df4576040517f08c379a0000000000000000000000000000000000000000000000000000000008152600401610deb90613fa2565b60405180910390fd5b80915050919050565b610e2e7f9f2df0fed2c77648de5860a4cc508cd0818c85b8b8a1ab4ceeef8d981c8956a6610e29611632565b610fed565b610e6d576040517f08c379a0000000000000000000000000000000000000000000000000000000008152600401610e6490614034565b60405180910390fd5b610e8081610e7b600d6116f3565b611d1f565b610e8a600d611701565b50565b60008073ffffffffffffffffffffffffffffffffffffffff168273ffffffffffffffffffffffffffffffffffffffff1603610efd576040517f08c379a0000000000000000000000000000000000000000000000000000000008152600401610ef4906140c6565b60405180910390fd5b600560008373ffffffffffffffffffffffffffffffffffffffff1673ffffffffffffffffffffffffffffffffffffffff168152602001908152602001600020549050919050565b610f757f65d7a28e3265b37a6474929f336521b332c1681b933f6cb9f3376673440d862a610f70611632565b610fed565b610fb4576040517f08c379a0000000000000000000000000000000000000000000000000000000008152600401610fab90614158565b60405180910390fd5b610fbc611ef8565b565b6000610fe58260016000868152602001908152602001600020611f9b90919063ffffffff16565b905092915050565b600080600084815260200190815260200160002060000160008373ffffffffffffffffffffffffffffffffffffffff1673ffffffffffffffffffffffffffffffffffffffff16815260200190815260200160002060009054906101000a900460ff16905092915050565b606060038054611066906139ae565b80601f0160208091040260200160405190810160405280929190818152602001828054611092906139ae565b80156110df5780601f106110b4576101008083540402835291602001916110df565b820191906000526020600020905b8154815290600101906020018083116110c257829003601f168201915b5050505050905090565b6000801b81565b6111026110fb611632565b8383611fb5565b5050565b61110f81610d4c565b73ffffffffffffffffffffffffffffffffffffffff163373ffffffffffffffffffffffffffffffffffffffff161461117c576040517f08c379a0000000000000000000000000000000000000000000000000000000008152600401611173906141ea565b60405180910390fd5b6011600082815260200190815260200160002054826040516020016111a191906133a7565b60405160208183030381529060405280519060200120146111f7576040517f08c379a00000000000000000000000000000000000000000000000000000000081526004016111ee9061427c565b60405180910390fd5b60016012600083815260200190815260200160002060006101000a81548160ff0219169083151502179055507f0fe7d9801197f79ef3b1595d19379eb58f0fff5f98b0f6d6f34c03cae5306c37813360405161125492919061429c565b60405180910390a15050565b61127161126b611632565b83611717565b6112b0576040517f08c379a00000000000000000000000000000000000000000000000000000000081526004016112a790613c07565b60405180910390fd5b6112bc84848484612121565b50505050565b60126020528060005260406000206000915054906101000a900460ff1681565b60606112ed8261217d565b6040516020016112fd919061434d565b6040516020818303038152906040529050919050565b600061133060016000848152602001908152602001600020612224565b9050919050565b7f9f2df0fed2c77648de5860a4cc508cd0818c85b8b8a1ab4ceeef8d981c8956a681565b61136482610a46565b61137581611370611632565b611a5b565b61137f8383611b2c565b505050565b7f65d7a28e3265b37a6474929f336521b332c1681b933f6cb9f3376673440d862a81565b6000600760008473ffffffffffffffffffffffffffffffffffffffff1673ffffffffffffffffffffffffffffffffffffffff16815260200190815260200160002060008373ffffffffffffffffffffffffffffffffffffffff1673ffffffffffffffffffffffffffffffffffffffff16815260200190815260200160002060009054906101000a900460ff16905092915050565b6114468282610fed565b61151857600160008084815260200190815260200160002060000160008373ffffffffffffffffffffffffffffffffffffffff1673ffffffffffffffffffffffffffffffffffffffff16815260200190815260200160002060006101000a81548160ff0219169083151502179055506114bd611632565b73ffffffffffffffffffffffffffffffffffffffff168173ffffffffffffffffffffffffffffffffffffffff16837f2f8788117e7eff1d82e926ec794901d17c78024a50270940304540a733656f0d60405160405180910390a45b5050565b6000611544836000018373ffffffffffffffffffffffffffffffffffffffff1660001b612239565b905092915050565b60007f780e9d63000000000000000000000000000000000000000000000000000000007bffffffffffffffffffffffffffffffffffffffffffffffffffffffff1916827bffffffffffffffffffffffffffffffffffffffffffffffffffffffff191614806115bf57506115be826122a9565b5b9050919050565b60008073ffffffffffffffffffffffffffffffffffffffff166004600084815260200190815260200160002060009054906101000a900473ffffffffffffffffffffffffffffffffffffffff1673ffffffffffffffffffffffffffffffffffffffff1614159050919050565b600033905090565b816006600083815260200190815260200160002060006101000a81548173ffffffffffffffffffffffffffffffffffffffff021916908373ffffffffffffffffffffffffffffffffffffffff160217905550808273ffffffffffffffffffffffffffffffffffffffff166116ad83610d4c565b73ffffffffffffffffffffffffffffffffffffffff167f8c5be1e5ebec7d5bd14f71427d1e84f3dd0314c0f7b2291e5b200ac8c7c3b92560405160405180910390a45050565b600081600001549050919050565b6001816000016000828254019250508190555050565b6000611722826115c6565b611761576040517f08c379a0000000000000000000000000000000000000000000000000000000008152600401611758906143e1565b60405180910390fd5b600061176c83610d4c565b90508073ffffffffffffffffffffffffffffffffffffffff168473ffffffffffffffffffffffffffffffffffffffff1614806117db57508373ffffffffffffffffffffffffffffffffffffffff166117c3846107e3565b73ffffffffffffffffffffffffffffffffffffffff16145b806117ec57506117eb81856113a8565b5b91505092915050565b8273ffffffffffffffffffffffffffffffffffffffff1661181582610d4c565b73ffffffffffffffffffffffffffffffffffffffff161461186b576040517f08c379a000000000000000000000000000000000000000000000000000000000815260040161186290614473565b60405180910390fd5b600073ffffffffffffffffffffffffffffffffffffffff168273ffffffffffffffffffffffffffffffffffffffff16036118da576040517f08c379a00000000000000000000000000000000000000000000000000000000081526004016118d190614505565b60405180910390fd5b6118e583838361238b565b6118f060008261163a565b6001600560008573ffffffffffffffffffffffffffffffffffffffff1673ffffffffffffffffffffffffffffffffffffffff16815260200190815260200160002060008282546119409190614554565b925050819055506001600560008473ffffffffffffffffffffffffffffffffffffffff1673ffffffffffffffffffffffffffffffffffffffff16815260200190815260200160002060008282546119979190614588565b92505081905550816004600083815260200190815260200160002060006101000a81548173ffffffffffffffffffffffffffffffffffffffff021916908373ffffffffffffffffffffffffffffffffffffffff160217905550808273ffffffffffffffffffffffffffffffffffffffff168473ffffffffffffffffffffffffffffffffffffffff167fddf252ad1be2c89b69c2b068fc378daa952ba7f163c4a11628f55a4df523b3ef60405160405180910390a4611a56838383612418565b505050565b611a658282610fed565b611af457611a8a8173ffffffffffffffffffffffffffffffffffffffff16601461241d565b611a988360001c602061241d565b604051602001611aa9929190614676565b6040516020818303038152906040526040517f08c379a0000000000000000000000000000000000000000000000000000000008152600401611aeb919061345b565b60405180910390fd5b5050565b611b02828261143c565b611b27816001600085815260200190815260200160002061151c90919063ffffffff16565b505050565b611b368282612659565b611b5b816001600085815260200190815260200160002061273a90919063ffffffff16565b505050565b611b68610d35565b611ba7576040517f08c379a0000000000000000000000000000000000000000000000000000000008152600401611b9e906146fc565b60405180910390fd5b6000600c60006101000a81548160ff0219169083151502179055507f5db9ee0a495bf2e6ff9c91a7834c1ba4fdd244a5e8aa4e537bd38aeae4b073aa611beb611632565b604051611bf891906134be565b60405180910390a1565b6000611c0d82610d4c565b9050611c1b8160008461238b565b611c2660008361163a565b6001600560008373ffffffffffffffffffffffffffffffffffffffff1673ffffffffffffffffffffffffffffffffffffffff1681526020019081526020016000206000828254611c769190614554565b925050819055506004600083815260200190815260200160002060006101000a81549073ffffffffffffffffffffffffffffffffffffffff021916905581600073ffffffffffffffffffffffffffffffffffffffff168273ffffffffffffffffffffffffffffffffffffffff167fddf252ad1be2c89b69c2b068fc378daa952ba7f163c4a11628f55a4df523b3ef60405160405180910390a4611d1b81600084612418565b5050565b600073ffffffffffffffffffffffffffffffffffffffff168273ffffffffffffffffffffffffffffffffffffffff1603611d8e576040517f08c379a0000000000000000000000000000000000000000000000000000000008152600401611d8590614768565b60405180910390fd5b611d97816115c6565b15611dd7576040517f08c379a0000000000000000000000000000000000000000000000000000000008152600401611dce906147d4565b60405180910390fd5b611de36000838361238b565b6001600560008473ffffffffffffffffffffffffffffffffffffffff1673ffffffffffffffffffffffffffffffffffffffff1681526020019081526020016000206000828254611e339190614588565b92505081905550816004600083815260200190815260200160002060006101000a81548173ffffffffffffffffffffffffffffffffffffffff021916908373ffffffffffffffffffffffffffffffffffffffff160217905550808273ffffffffffffffffffffffffffffffffffffffff16600073ffffffffffffffffffffffffffffffffffffffff167fddf252ad1be2c89b69c2b068fc378daa952ba7f163c4a11628f55a4df523b3ef60405160405180910390a4611ef460008383612418565b5050565b611f00610d35565b15611f40576040517f08c379a0000000000000000000000000000000000000000000000000000000008152600401611f3790614840565b60405180910390fd5b6001600c60006101000a81548160ff0219169083151502179055507f62e78cea01bee320cd4e420270b5ea74000d11b0c9f74754ebdbfc544b05a258611f84611632565b604051611f9191906134be565b60405180910390a1565b6000611faa836000018361276a565b60001c905092915050565b8173ffffffffffffffffffffffffffffffffffffffff168373ffffffffffffffffffffffffffffffffffffffff1603612023576040517f08c379a000000000000000000000000000000000000000000000000000000000815260040161201a906148ac565b60405180910390fd5b80600760008573ffffffffffffffffffffffffffffffffffffffff1673ffffffffffffffffffffffffffffffffffffffff16815260200190815260200160002060008473ffffffffffffffffffffffffffffffffffffffff1673ffffffffffffffffffffffffffffffffffffffff16815260200190815260200160002060006101000a81548160ff0219169083151502179055508173ffffffffffffffffffffffffffffffffffffffff168373ffffffffffffffffffffffffffffffffffffffff167f17307eab39ab6107e8899845ad3d59bd9653f200f220920489ca2b5937696c31836040516121149190613310565b60405180910390a3505050565b61212c8484846117f5565b61213884848484612795565b612177576040517f08c379a000000000000000000000000000000000000000000000000000000000815260040161216e9061493e565b60405180910390fd5b50505050565b6060612188826115c6565b6121c7576040517f08c379a00000000000000000000000000000000000000000000000000000000081526004016121be906149d0565b60405180910390fd5b60006121d161291c565b905060008151116121f1576040518060200160405280600081525061221c565b806121fb846129ae565b60405160200161220c9291906149f0565b6040516020818303038152906040525b915050919050565b600061223282600001612b0e565b9050919050565b60006122458383612b1f565b61229e5782600001829080600181540180825580915050600190039060005260206000200160009091909190915055826000018054905083600101600084815260200190815260200160002081905550600190506122a3565b600090505b92915050565b60007f80ac58cd000000000000000000000000000000000000000000000000000000007bffffffffffffffffffffffffffffffffffffffffffffffffffffffff1916827bffffffffffffffffffffffffffffffffffffffffffffffffffffffff1916148061237457507f5b5e139f000000000000000000000000000000000000000000000000000000007bffffffffffffffffffffffffffffffffffffffffffffffffffffffff1916827bffffffffffffffffffffffffffffffffffffffffffffffffffffffff1916145b80612384575061238382612b42565b5b9050919050565b42601060008381526020019081526020016000205411806123c957506012600082815260200190815260200160002060009054906101000a900460ff165b612408576040517f08c379a00000000000000000000000000000000000000000000000000000000081526004016123ff90614a60565b60405180910390fd5b612413838383612bbc565b505050565b505050565b6060600060028360026124309190614a80565b61243a9190614588565b67ffffffffffffffff81111561245357612452613791565b5b6040519080825280601f01601f1916602001820160405280156124855781602001600182028036833780820191505090505b5090507f3000000000000000000000000000000000000000000000000000000000000000816000815181106124bd576124bc613f01565b5b60200101907effffffffffffffffffffffffffffffffffffffffffffffffffffffffffffff1916908160001a9053507f78000000000000000000000000000000000000000000000000000000000000008160018151811061252157612520613f01565b5b60200101907effffffffffffffffffffffffffffffffffffffffffffffffffffffffffffff1916908160001a905350600060018460026125619190614a80565b61256b9190614588565b90505b600181111561260b577f3031323334353637383961626364656600000000000000000000000000000000600f8616601081106125ad576125ac613f01565b5b1a60f81b8282815181106125c4576125c3613f01565b5b60200101907effffffffffffffffffffffffffffffffffffffffffffffffffffffffffffff1916908160001a905350600485901c94508061260490614ada565b905061256e565b506000841461264f576040517f08c379a000000000000000000000000000000000000000000000000000000000815260040161264690614b4f565b60405180910390fd5b8091505092915050565b6126638282610fed565b1561273657600080600084815260200190815260200160002060000160008373ffffffffffffffffffffffffffffffffffffffff1673ffffffffffffffffffffffffffffffffffffffff16815260200190815260200160002060006101000a81548160ff0219169083151502179055506126db611632565b73ffffffffffffffffffffffffffffffffffffffff168173ffffffffffffffffffffffffffffffffffffffff16837ff6391f5c32d9c69d2a47ea670b442974b53935d1edc7fd64eb21e047a839171b60405160405180910390a45b5050565b6000612762836000018373ffffffffffffffffffffffffffffffffffffffff1660001b612bcc565b905092915050565b600082600001828154811061278257612781613f01565b5b9060005260206000200154905092915050565b60006127b68473ffffffffffffffffffffffffffffffffffffffff16612ce0565b1561290f578373ffffffffffffffffffffffffffffffffffffffff1663150b7a026127df611632565b8786866040518563ffffffff1660e01b81526004016128019493929190614bc4565b6020604051808303816000875af192505050801561283d57506040513d601f19601f8201168201806040525081019061283a9190614c25565b60015b6128bf573d806000811461286d576040519150601f19603f3d011682016040523d82523d6000602084013e612872565b606091505b5060008151036128b7576040517f08c379a00000000000000000000000000000000000000000000000000000000081526004016128ae9061493e565b60405180910390fd5b805181602001fd5b63150b7a0260e01b7bffffffffffffffffffffffffffffffffffffffffffffffffffffffff1916817bffffffffffffffffffffffffffffffffffffffffffffffffffffffff191614915050612914565b600190505b949350505050565b6060600e805461292b906139ae565b80601f0160208091040260200160405190810160405280929190818152602001828054612957906139ae565b80156129a45780601f10612979576101008083540402835291602001916129a4565b820191906000526020600020905b81548152906001019060200180831161298757829003601f168201915b5050505050905090565b6060600082036129f5576040518060400160405280600181526020017f30000000000000000000000000000000000000000000000000000000000000008152509050612b09565b600082905060005b60008214612a27578080612a1090614c52565b915050600a82612a209190614cc9565b91506129fd565b60008167ffffffffffffffff811115612a4357612a42613791565b5b6040519080825280601f01601f191660200182016040528015612a755781602001600182028036833780820191505090505b5090505b60008514612b0257600182612a8e9190614554565b9150600a85612a9d9190614cfa565b6030612aa99190614588565b60f81b818381518110612abf57612abe613f01565b5b60200101907effffffffffffffffffffffffffffffffffffffffffffffffffffffffffffff1916908160001a905350600a85612afb9190614cc9565b9450612a79565b8093505050505b919050565b600081600001805490509050919050565b600080836001016000848152602001908152602001600020541415905092915050565b60007f5a05180f000000000000000000000000000000000000000000000000000000007bffffffffffffffffffffffffffffffffffffffffffffffffffffffff1916827bffffffffffffffffffffffffffffffffffffffffffffffffffffffff19161480612bb55750612bb482612d03565b5b9050919050565b612bc7838383612d7d565b505050565b60008083600101600084815260200190815260200160002054905060008114612cd4576000600182612bfe9190614554565b9050600060018660000180549050612c169190614554565b9050818114612c85576000866000018281548110612c3757612c36613f01565b5b9060005260206000200154905080876000018481548110612c5b57612c5a613f01565b5b90600052602060002001819055508387600101600083815260200190815260200160002081905550505b85600001805480612c9957612c98614d2b565b5b600190038181906000526020600020016000905590558560010160008681526020019081526020016000206000905560019350505050612cda565b60009150505b92915050565b6000808273ffffffffffffffffffffffffffffffffffffffff163b119050919050565b60007f7965db0b000000000000000000000000000000000000000000000000000000007bffffffffffffffffffffffffffffffffffffffffffffffffffffffff1916827bffffffffffffffffffffffffffffffffffffffffffffffffffffffff19161480612d765750612d7582612dd5565b5b9050919050565b612d88838383612e3f565b612d90610d35565b15612dd0576040517f08c379a0000000000000000000000000000000000000000000000000000000008152600401612dc790614dcc565b60405180910390fd5b505050565b60007f01ffc9a7000000000000000000000000000000000000000000000000000000007bffffffffffffffffffffffffffffffffffffffffffffffffffffffff1916827bffffffffffffffffffffffffffffffffffffffffffffffffffffffff1916149050919050565b612e4a838383612f51565b600073ffffffffffffffffffffffffffffffffffffffff168373ffffffffffffffffffffffffffffffffffffffff1603612e8c57612e8781612f56565b612ecb565b8173ffffffffffffffffffffffffffffffffffffffff168373ffffffffffffffffffffffffffffffffffffffff1614612eca57612ec98382612f9f565b5b5b600073ffffffffffffffffffffffffffffffffffffffff168273ffffffffffffffffffffffffffffffffffffffff1603612f0d57612f088161310c565b612f4c565b8273ffffffffffffffffffffffffffffffffffffffff168273ffffffffffffffffffffffffffffffffffffffff1614612f4b57612f4a82826131dd565b5b5b505050565b505050565b600a80549050600b600083815260200190815260200160002081905550600a81908060018154018082558091505060019003906000526020600020016000909190919091505550565b60006001612fac84610e8d565b612fb69190614554565b905060006009600084815260200190815260200160002054905081811461309b576000600860008673ffffffffffffffffffffffffffffffffffffffff1673ffffffffffffffffffffffffffffffffffffffff168152602001908152602001600020600084815260200190815260200160002054905080600860008773ffffffffffffffffffffffffffffffffffffffff1673ffffffffffffffffffffffffffffffffffffffff168152602001908152602001600020600084815260200190815260200160002081905550816009600083815260200190815260200160002081905550505b6009600084815260200190815260200160002060009055600860008573ffffffffffffffffffffffffffffffffffffffff1673ffffffffffffffffffffffffffffffffffffffff16815260200190815260200160002060008381526020019081526020016000206000905550505050565b60006001600a805490506131209190614554565b90506000600b60008481526020019081526020016000205490506000600a83815481106131505761314f613f01565b5b9060005260206000200154905080600a838154811061317257613171613f01565b5b906000526020600020018190555081600b600083815260200190815260200160002081905550600b600085815260200190815260200160002060009055600a8054806131c1576131c0614d2b565b5b6001900381819060005260206000200160009055905550505050565b60006131e883610e8d565b905081600860008573ffffffffffffffffffffffffffffffffffffffff1673ffffffffffffffffffffffffffffffffffffffff168152602001908152602001600020600083815260200190815260200160002081905550806009600084815260200190815260200160002081905550505050565b6000604051905090565b600080fd5b600080fd5b60007fffffffff0000000000000000000000000000000000000000000000000000000082169050919050565b6132a581613270565b81146132b057600080fd5b50565b6000813590506132c28161329c565b92915050565b6000602082840312156132de576132dd613266565b5b60006132ec848285016132b3565b91505092915050565b60008115159050919050565b61330a816132f5565b82525050565b60006020820190506133256000830184613301565b92915050565b6000819050919050565b61333e8161332b565b811461334957600080fd5b50565b60008135905061335b81613335565b92915050565b60006020828403121561337757613376613266565b5b60006133858482850161334c565b91505092915050565b6000819050919050565b6133a18161338e565b82525050565b60006020820190506133bc6000830184613398565b92915050565b600081519050919050565b600082825260208201905092915050565b60005b838110156133fc5780820151818401526020810190506133e1565b8381111561340b576000848401525b50505050565b6000601f19601f8301169050919050565b600061342d826133c2565b61343781856133cd565b93506134478185602086016133de565b61345081613411565b840191505092915050565b600060208201905081810360008301526134758184613422565b905092915050565b600073ffffffffffffffffffffffffffffffffffffffff82169050919050565b60006134a88261347d565b9050919050565b6134b88161349d565b82525050565b60006020820190506134d360008301846134af565b92915050565b6134e28161349d565b81146134ed57600080fd5b50565b6000813590506134ff816134d9565b92915050565b6000806040838503121561351c5761351b613266565b5b600061352a858286016134f0565b925050602061353b8582860161334c565b9150509250929050565b61354e8161332b565b82525050565b60006020820190506135696000830184613545565b92915050565b6135788161338e565b811461358357600080fd5b50565b6000813590506135958161356f565b92915050565b6000806000606084860312156135b4576135b3613266565b5b60006135c2868287016134f0565b93505060206135d38682870161334c565b92505060406135e486828701613586565b9150509250925092565b60008060006060848603121561360757613606613266565b5b6000613615868287016134f0565b9350506020613626868287016134f0565b92505060406136378682870161334c565b9150509250925092565b60006020828403121561365757613656613266565b5b600061366584828501613586565b91505092915050565b6000806040838503121561368557613684613266565b5b600061369385828601613586565b92505060206136a4858286016134f0565b9150509250929050565b6000602082840312156136c4576136c3613266565b5b60006136d2848285016134f0565b91505092915050565b600080604083850312156136f2576136f1613266565b5b600061370085828601613586565b92505060206137118582860161334c565b9150509250929050565b613724816132f5565b811461372f57600080fd5b50565b6000813590506137418161371b565b92915050565b6000806040838503121561375e5761375d613266565b5b600061376c858286016134f0565b925050602061377d85828601613732565b9150509250929050565b600080fd5b600080fd5b7f4e487b7100000000000000000000000000000000000000000000000000000000600052604160045260246000fd5b6137c982613411565b810181811067ffffffffffffffff821117156137e8576137e7613791565b5b80604052505050565b60006137fb61325c565b905061380782826137c0565b919050565b600067ffffffffffffffff82111561382757613826613791565b5b61383082613411565b9050602081019050919050565b82818337600083830152505050565b600061385f61385a8461380c565b6137f1565b90508281526020810184848401111561387b5761387a61378c565b5b61388684828561383d565b509392505050565b600082601f8301126138a3576138a2613787565b5b81356138b384826020860161384c565b91505092915050565b600080600080608085870312156138d6576138d5613266565b5b60006138e4878288016134f0565b94505060206138f5878288016134f0565b93505060406139068782880161334c565b925050606085013567ffffffffffffffff8111156139275761392661326b565b5b6139338782880161388e565b91505092959194509250565b6000806040838503121561395657613955613266565b5b6000613964858286016134f0565b9250506020613975858286016134f0565b9150509250929050565b7f4e487b7100000000000000000000000000000000000000000000000000000000600052602260045260246000fd5b600060028204905060018216806139c657607f821691505b6020821081036139d9576139d861397f565b5b50919050565b7f4552433732313a20617070726f76656420717565727920666f72206e6f6e657860008201527f697374656e7420746f6b656e0000000000000000000000000000000000000000602082015250565b6000613a3b602c836133cd565b9150613a46826139df565b604082019050919050565b60006020820190508181036000830152613a6a81613a2e565b9050919050565b7f4552433732313a20617070726f76616c20746f2063757272656e74206f776e6560008201527f7200000000000000000000000000000000000000000000000000000000000000602082015250565b6000613acd6021836133cd565b9150613ad882613a71565b604082019050919050565b60006020820190508181036000830152613afc81613ac0565b9050919050565b7f4552433732313a20617070726f76652063616c6c6572206973206e6f74206f7760008201527f6e6572206e6f7220617070726f76656420666f7220616c6c0000000000000000602082015250565b6000613b5f6038836133cd565b9150613b6a82613b03565b604082019050919050565b60006020820190508181036000830152613b8e81613b52565b9050919050565b7f4552433732313a207472616e736665722063616c6c6572206973206e6f74206f60008201527f776e6572206e6f7220617070726f766564000000000000000000000000000000602082015250565b6000613bf16031836133cd565b9150613bfc82613b95565b604082019050919050565b60006020820190508181036000830152613c2081613be4565b9050919050565b7f455243373231456e756d657261626c653a206f776e657220696e646578206f7560008201527f74206f6620626f756e6473000000000000000000000000000000000000000000602082015250565b6000613c83602b836133cd565b9150613c8e82613c27565b604082019050919050565b60006020820190508181036000830152613cb281613c76565b9050919050565b7f416363657373436f6e74726f6c3a2063616e206f6e6c792072656e6f756e636560008201527f20726f6c657320666f722073656c660000000000000000000000000000000000602082015250565b6000613d15602f836133cd565b9150613d2082613cb9565b604082019050919050565b60006020820190508181036000830152613d4481613d08565b9050919050565b7f4552433732315072657365744d696e7465725061757365724175746f49643a2060008201527f6d75737420686176652070617573657220726f6c6520746f20756e7061757365602082015250565b6000613da76040836133cd565b9150613db282613d4b565b604082019050919050565b60006020820190508181036000830152613dd681613d9a565b9050919050565b7f4552433732314275726e61626c653a2063616c6c6572206973206e6f74206f7760008201527f6e6572206e6f7220617070726f76656400000000000000000000000000000000602082015250565b6000613e396030836133cd565b9150613e4482613ddd565b604082019050919050565b60006020820190508181036000830152613e6881613e2c565b9050919050565b7f455243373231456e756d657261626c653a20676c6f62616c20696e646578206f60008201527f7574206f6620626f756e64730000000000000000000000000000000000000000602082015250565b6000613ecb602c836133cd565b9150613ed682613e6f565b604082019050919050565b60006020820190508181036000830152613efa81613ebe565b9050919050565b7f4e487b7100000000000000000000000000000000000000000000000000000000600052603260045260246000fd5b7f4552433732313a206f776e657220717565727920666f72206e6f6e657869737460008201527f656e7420746f6b656e0000000000000000000000000000000000000000000000602082015250565b6000613f8c6029836133cd565b9150613f9782613f30565b604082019050919050565b60006020820190508181036000830152613fbb81613f7f565b9050919050565b7f4552433732315072657365744d696e7465725061757365724175746f49643a2060008201527f6d7573742068617665206d696e74657220726f6c6520746f206d696e74000000602082015250565b600061401e603d836133cd565b915061402982613fc2565b604082019050919050565b6000602082019050818103600083015261404d81614011565b9050919050565b7f4552433732313a2062616c616e636520717565727920666f7220746865207a6560008201527f726f206164647265737300000000000000000000000000000000000000000000602082015250565b60006140b0602a836133cd565b91506140bb82614054565b604082019050919050565b600060208201905081810360008301526140df816140a3565b9050919050565b7f4552433732315072657365744d696e7465725061757365724175746f49643a2060008201527f6d75737420686176652070617573657220726f6c6520746f2070617573650000602082015250565b6000614142603e836133cd565b915061414d826140e6565b604082019050919050565b6000602082019050818103600083015261417181614135565b9050919050565b7f4169736874697369546f6b656e3a204f6e6c7920746865204f776e657220636160008201527f6e20756e6c6f636b2074686520546f6b656e0000000000000000000000000000602082015250565b60006141d46032836133cd565b91506141df82614178565b604082019050919050565b60006020820190508181036000830152614203816141c7565b9050919050565b7f4169736874697369546f6b656e3a20556e6c6f636b20436f646520496e636f7260008201527f7265637400000000000000000000000000000000000000000000000000000000602082015250565b60006142666024836133cd565b91506142718261420a565b604082019050919050565b6000602082019050818103600083015261429581614259565b9050919050565b60006040820190506142b16000830185613545565b6142be60208301846134af565b9392505050565b600081905092915050565b60006142db826133c2565b6142e581856142c5565b93506142f58185602086016133de565b80840191505092915050565b7f2e6a736f6e000000000000000000000000000000000000000000000000000000600082015250565b60006143376005836142c5565b915061434282614301565b600582019050919050565b600061435982846142d0565b91506143648261432a565b915081905092915050565b7f4552433732313a206f70657261746f7220717565727920666f72206e6f6e657860008201527f697374656e7420746f6b656e0000000000000000000000000000000000000000602082015250565b60006143cb602c836133cd565b91506143d68261436f565b604082019050919050565b600060208201905081810360008301526143fa816143be565b9050919050565b7f4552433732313a207472616e736665722066726f6d20696e636f72726563742060008201527f6f776e6572000000000000000000000000000000000000000000000000000000602082015250565b600061445d6025836133cd565b915061446882614401565b604082019050919050565b6000602082019050818103600083015261448c81614450565b9050919050565b7f4552433732313a207472616e7366657220746f20746865207a65726f2061646460008201527f7265737300000000000000000000000000000000000000000000000000000000602082015250565b60006144ef6024836133cd565b91506144fa82614493565b604082019050919050565b6000602082019050818103600083015261451e816144e2565b9050919050565b7f4e487b7100000000000000000000000000000000000000000000000000000000600052601160045260246000fd5b600061455f8261332b565b915061456a8361332b565b92508282101561457d5761457c614525565b5b828203905092915050565b60006145938261332b565b915061459e8361332b565b9250827fffffffffffffffffffffffffffffffffffffffffffffffffffffffffffffffff038211156145d3576145d2614525565b5b828201905092915050565b7f416363657373436f6e74726f6c3a206163636f756e7420000000000000000000600082015250565b60006146146017836142c5565b915061461f826145de565b601782019050919050565b7f206973206d697373696e6720726f6c6520000000000000000000000000000000600082015250565b60006146606011836142c5565b915061466b8261462a565b601182019050919050565b600061468182614607565b915061468d82856142d0565b915061469882614653565b91506146a482846142d0565b91508190509392505050565b7f5061757361626c653a206e6f7420706175736564000000000000000000000000600082015250565b60006146e66014836133cd565b91506146f1826146b0565b602082019050919050565b60006020820190508181036000830152614715816146d9565b9050919050565b7f4552433732313a206d696e7420746f20746865207a65726f2061646472657373600082015250565b60006147526020836133cd565b915061475d8261471c565b602082019050919050565b6000602082019050818103600083015261478181614745565b9050919050565b7f4552433732313a20746f6b656e20616c7265616479206d696e74656400000000600082015250565b60006147be601c836133cd565b91506147c982614788565b602082019050919050565b600060208201905081810360008301526147ed816147b1565b9050919050565b7f5061757361626c653a2070617573656400000000000000000000000000000000600082015250565b600061482a6010836133cd565b9150614835826147f4565b602082019050919050565b600060208201905081810360008301526148598161481d565b9050919050565b7f4552433732313a20617070726f766520746f2063616c6c657200000000000000600082015250565b60006148966019836133cd565b91506148a182614860565b602082019050919050565b600060208201905081810360008301526148c581614889565b9050919050565b7f4552433732313a207472616e7366657220746f206e6f6e20455243373231526560008201527f63656976657220696d706c656d656e7465720000000000000000000000000000602082015250565b60006149286032836133cd565b9150614933826148cc565b604082019050919050565b600060208201905081810360008301526149578161491b565b9050919050565b7f4552433732314d657461646174613a2055524920717565727920666f72206e6f60008201527f6e6578697374656e7420746f6b656e0000000000000000000000000000000000602082015250565b60006149ba602f836133cd565b91506149c58261495e565b604082019050919050565b600060208201905081810360008301526149e9816149ad565b9050919050565b60006149fc82856142d0565b9150614a0882846142d0565b91508190509392505050565b7f4169736874697369546f6b656e3a20546f6b656e206c6f636b65640000000000600082015250565b6000614a4a601b836133cd565b9150614a5582614a14565b602082019050919050565b60006020820190508181036000830152614a7981614a3d565b9050919050565b6000614a8b8261332b565b9150614a968361332b565b9250817fffffffffffffffffffffffffffffffffffffffffffffffffffffffffffffffff0483118215151615614acf57614ace614525565b5b828202905092915050565b6000614ae58261332b565b915060008203614af857614af7614525565b5b600182039050919050565b7f537472696e67733a20686578206c656e67746820696e73756666696369656e74600082015250565b6000614b396020836133cd565b9150614b4482614b03565b602082019050919050565b60006020820190508181036000830152614b6881614b2c565b9050919050565b600081519050919050565b600082825260208201905092915050565b6000614b9682614b6f565b614ba08185614b7a565b9350614bb08185602086016133de565b614bb981613411565b840191505092915050565b6000608082019050614bd960008301876134af565b614be660208301866134af565b614bf36040830185613545565b8181036060830152614c058184614b8b565b905095945050505050565b600081519050614c1f8161329c565b92915050565b600060208284031215614c3b57614c3a613266565b5b6000614c4984828501614c10565b91505092915050565b6000614c5d8261332b565b91507fffffffffffffffffffffffffffffffffffffffffffffffffffffffffffffffff8203614c8f57614c8e614525565b5b600182019050919050565b7f4e487b7100000000000000000000000000000000000000000000000000000000600052601260045260246000fd5b6000614cd48261332b565b9150614cdf8361332b565b925082614cef57614cee614c9a565b5b828204905092915050565b6000614d058261332b565b9150614d108361332b565b925082614d2057614d1f614c9a565b5b828206905092915050565b7f4e487b7100000000000000000000000000000000000000000000000000000000600052603160045260246000fd5b7f4552433732315061757361626c653a20746f6b656e207472616e73666572207760008201527f68696c6520706175736564000000000000000000000000000000000000000000602082015250565b6000614db6602b836133cd565b9150614dc182614d5a565b604082019050919050565b60006020820190508181036000830152614de581614da9565b905091905056fea26469706673582212201d0e9a7d4ee13df9145b1c6c2377f275412154a9e805e123b28a596bd8c852a164736f6c634300080d0033",
  "immutableReferences": {},
  "source": "// SPDX-License-Identifier: MIT\npragma solidity 0.8.13;\n\nimport \"@openzeppelin/contracts/token/ERC721/presets/ERC721PresetMinterPauserAutoId.sol\";\nimport \"@openzeppelin/contracts/utils/Counters.sol\";\n\ncontract AisthisiToken is ERC721PresetMinterPauserAutoId {\n    using Counters for Counters.Counter;\n    Counters.Counter private _tokenIds;\n\n    mapping (uint => uint) public tokenLockedFromTimestamp;\n    mapping (uint => bytes32) public tokenUnlockCodeHashes;\n    mapping (uint => bool) public tokenUnlocked;\n\n    event TokenUnlocked(uint tokenId, address unlockerAddress);\n\n    constructor() ERC721PresetMinterPauserAutoId(\"AisthisiToken\", \"AIS\", \"https://aisthisi.art/metadata/\") {}\n\n    function _beforeTokenTransfer(address from, address to, uint256 tokenId) internal override {\n        require(tokenLockedFromTimestamp[tokenId] > block.timestamp || tokenUnlocked[tokenId], \"AishtisiToken: Token locked\");\n        super._beforeTokenTransfer(from, to, tokenId);\n    }\n\n    function unlockToken(bytes32 unlockHash, uint256 tokenId) public {\n        require(msg.sender == ownerOf(tokenId), \"AishtisiToken: Only the Owner can unlock the Token\"); //not 100% sure about that one yet\n        require(keccak256(abi.encode(unlockHash)) == tokenUnlockCodeHashes[tokenId], \"AishtisiToken: Unlock Code Incorrect\");\n        tokenUnlocked[tokenId] = true;\n        emit TokenUnlocked(tokenId, msg.sender);\n    }\n\n    /**\n    * This one is the mint function that sets the unlock code, then calls the parent mint\n    */\n    function mint(address to, uint lockedFromTimestamp, bytes32 unlockHash) public {\n        tokenLockedFromTimestamp[_tokenIds.current()] = lockedFromTimestamp;\n        tokenUnlockCodeHashes[_tokenIds.current()] = unlockHash;\n        _tokenIds.increment();\n        super.mint(to);\n    }\n\n    function tokenURI(uint256 tokenId) public view virtual override returns (string memory) {\n    return string(abi.encodePacked(super.tokenURI(tokenId),\".json\"));\n    }\n}\n",
  "sourcePath": "/Users/srishtitiwari/PROJECT_OLIVEOIL/contracts/AisthisiToken.sol",
  "compiler": {
    "name": "solc",
    "version": "0.8.13+commit.abaa5c0e.Emscripten.clang"
  },
  "schemaVersion": "3.4.6",
  "updatedAt": "2022-03-29T10:36:27.663Z",
  "networkType": "ethereum",
  "devdoc": {
    "kind": "dev",
    "methods": {
      "approve(address,uint256)": {
        "details": "See {IERC721-approve}."
      },
      "balanceOf(address)": {
        "details": "See {IERC721-balanceOf}."
      },
      "burn(uint256)": {
        "details": "Burns `tokenId`. See {ERC721-_burn}. Requirements: - The caller must own `tokenId` or be an approved operator."
      },
      "getApproved(uint256)": {
        "details": "See {IERC721-getApproved}."
      },
      "getRoleAdmin(bytes32)": {
        "details": "Returns the admin role that controls `role`. See {grantRole} and {revokeRole}. To change a role's admin, use {_setRoleAdmin}."
      },
      "getRoleMember(bytes32,uint256)": {
        "details": "Returns one of the accounts that have `role`. `index` must be a value between 0 and {getRoleMemberCount}, non-inclusive. Role bearers are not sorted in any particular way, and their ordering may change at any point. WARNING: When using {getRoleMember} and {getRoleMemberCount}, make sure you perform all queries on the same block. See the following https://forum.openzeppelin.com/t/iterating-over-elements-on-enumerableset-in-openzeppelin-contracts/2296[forum post] for more information."
      },
      "getRoleMemberCount(bytes32)": {
        "details": "Returns the number of accounts that have `role`. Can be used together with {getRoleMember} to enumerate all bearers of a role."
      },
      "grantRole(bytes32,address)": {
        "details": "Grants `role` to `account`. If `account` had not been already granted `role`, emits a {RoleGranted} event. Requirements: - the caller must have ``role``'s admin role."
      },
      "hasRole(bytes32,address)": {
        "details": "Returns `true` if `account` has been granted `role`."
      },
      "isApprovedForAll(address,address)": {
        "details": "See {IERC721-isApprovedForAll}."
      },
      "mint(address)": {
        "details": "Creates a new token for `to`. Its token ID will be automatically assigned (and available on the emitted {IERC721-Transfer} event), and the token URI autogenerated based on the base URI passed at construction. See {ERC721-_mint}. Requirements: - the caller must have the `MINTER_ROLE`."
      },
      "name()": {
        "details": "See {IERC721Metadata-name}."
      },
      "ownerOf(uint256)": {
        "details": "See {IERC721-ownerOf}."
      },
      "pause()": {
        "details": "Pauses all token transfers. See {ERC721Pausable} and {Pausable-_pause}. Requirements: - the caller must have the `PAUSER_ROLE`."
      },
      "paused()": {
        "details": "Returns true if the contract is paused, and false otherwise."
      },
      "renounceRole(bytes32,address)": {
        "details": "Revokes `role` from the calling account. Roles are often managed via {grantRole} and {revokeRole}: this function's purpose is to provide a mechanism for accounts to lose their privileges if they are compromised (such as when a trusted device is misplaced). If the calling account had been revoked `role`, emits a {RoleRevoked} event. Requirements: - the caller must be `account`."
      },
      "revokeRole(bytes32,address)": {
        "details": "Revokes `role` from `account`. If `account` had been granted `role`, emits a {RoleRevoked} event. Requirements: - the caller must have ``role``'s admin role."
      },
      "safeTransferFrom(address,address,uint256)": {
        "details": "See {IERC721-safeTransferFrom}."
      },
      "safeTransferFrom(address,address,uint256,bytes)": {
        "details": "See {IERC721-safeTransferFrom}."
      },
      "setApprovalForAll(address,bool)": {
        "details": "See {IERC721-setApprovalForAll}."
      },
      "supportsInterface(bytes4)": {
        "details": "See {IERC165-supportsInterface}."
      },
      "symbol()": {
        "details": "See {IERC721Metadata-symbol}."
      },
      "tokenByIndex(uint256)": {
        "details": "See {IERC721Enumerable-tokenByIndex}."
      },
      "tokenOfOwnerByIndex(address,uint256)": {
        "details": "See {IERC721Enumerable-tokenOfOwnerByIndex}."
      },
      "tokenURI(uint256)": {
        "details": "See {IERC721Metadata-tokenURI}."
      },
      "totalSupply()": {
        "details": "See {IERC721Enumerable-totalSupply}."
      },
      "transferFrom(address,address,uint256)": {
        "details": "See {IERC721-transferFrom}."
      },
      "unpause()": {
        "details": "Unpauses all token transfers. See {ERC721Pausable} and {Pausable-_unpause}. Requirements: - the caller must have the `PAUSER_ROLE`."
      }
    },
    "version": 1
  },
  "userdoc": {
    "kind": "user",
    "methods": {
      "mint(address,uint256,bytes32)": {
        "notice": "This one is the mint function that sets the unlock code, then calls the parent mint"
      }
    },
    "version": 1
  }
}